{
  "_format": "hh-sol-artifact-1",
  "contractName": "MintarCore",
  "sourceName": "contracts/Core.sol",
  "abi": [
    {
      "anonymous": false,
      "inputs": [
        {
          "indexed": true,
          "internalType": "address",
          "name": "account",
          "type": "address"
        },
        {
          "indexed": true,
          "internalType": "address",
          "name": "operator",
          "type": "address"
        },
        {
          "indexed": false,
          "internalType": "bool",
          "name": "approved",
          "type": "bool"
        }
      ],
      "name": "ApprovalForAll",
      "type": "event"
    },
    {
      "anonymous": false,
      "inputs": [
        {
          "indexed": true,
          "internalType": "address",
          "name": "operator",
          "type": "address"
        },
        {
          "indexed": true,
          "internalType": "address",
          "name": "from",
          "type": "address"
        },
        {
          "indexed": true,
          "internalType": "address",
          "name": "to",
          "type": "address"
        },
        {
          "indexed": false,
          "internalType": "uint256[]",
          "name": "ids",
          "type": "uint256[]"
        },
        {
          "indexed": false,
          "internalType": "uint256[]",
          "name": "values",
          "type": "uint256[]"
        }
      ],
      "name": "TransferBatch",
      "type": "event"
    },
    {
      "anonymous": false,
      "inputs": [
        {
          "indexed": true,
          "internalType": "address",
          "name": "operator",
          "type": "address"
        },
        {
          "indexed": true,
          "internalType": "address",
          "name": "from",
          "type": "address"
        },
        {
          "indexed": true,
          "internalType": "address",
          "name": "to",
          "type": "address"
        },
        {
          "indexed": false,
          "internalType": "uint256",
          "name": "id",
          "type": "uint256"
        },
        {
          "indexed": false,
          "internalType": "uint256",
          "name": "value",
          "type": "uint256"
        }
      ],
      "name": "TransferSingle",
      "type": "event"
    },
    {
      "anonymous": false,
      "inputs": [
        {
          "indexed": false,
          "internalType": "string",
          "name": "value",
          "type": "string"
        },
        {
          "indexed": true,
          "internalType": "uint256",
          "name": "id",
          "type": "uint256"
        }
      ],
      "name": "URI",
      "type": "event"
    },
    {
      "inputs": [
        {
          "internalType": "address",
          "name": "account",
          "type": "address"
        },
        {
          "internalType": "uint256",
          "name": "id",
          "type": "uint256"
        }
      ],
      "name": "balanceOf",
      "outputs": [
        {
          "internalType": "uint256",
          "name": "",
          "type": "uint256"
        }
      ],
      "stateMutability": "view",
      "type": "function"
    },
    {
      "inputs": [
        {
          "internalType": "address[]",
          "name": "accounts",
          "type": "address[]"
        },
        {
          "internalType": "uint256[]",
          "name": "ids",
          "type": "uint256[]"
        }
      ],
      "name": "balanceOfBatch",
      "outputs": [
        {
          "internalType": "uint256[]",
          "name": "",
          "type": "uint256[]"
        }
      ],
      "stateMutability": "view",
      "type": "function"
    },
    {
      "inputs": [
        {
          "internalType": "bytes",
          "name": "id",
          "type": "bytes"
        },
        {
          "internalType": "uint64",
          "name": "amount",
          "type": "uint64"
        },
        {
          "internalType": "uint16",
          "name": "__royaltyFee",
          "type": "uint16"
        }
      ],
      "name": "create",
      "outputs": [
        {
          "internalType": "uint256",
          "name": "",
          "type": "uint256"
        }
      ],
      "stateMutability": "nonpayable",
      "type": "function"
    },
    {
      "inputs": [
        {
          "internalType": "bytes",
          "name": "id",
          "type": "bytes"
        },
        {
          "internalType": "uint64",
          "name": "amount",
          "type": "uint64"
        },
        {
          "internalType": "uint16",
          "name": "__royaltyFee",
          "type": "uint16"
        },
        {
          "internalType": "address",
          "name": "__creator",
          "type": "address"
        }
      ],
      "name": "createFromContract",
      "outputs": [
        {
          "internalType": "uint256",
          "name": "",
          "type": "uint256"
        }
      ],
      "stateMutability": "nonpayable",
      "type": "function"
    },
    {
      "inputs": [
        {
          "internalType": "uint256",
          "name": "_tokenId",
          "type": "uint256"
        }
      ],
      "name": "creator",
      "outputs": [
        {
          "internalType": "address",
          "name": "",
          "type": "address"
        }
      ],
      "stateMutability": "view",
      "type": "function"
    },
    {
      "inputs": [
        {
          "internalType": "uint256",
          "name": "id",
          "type": "uint256"
        }
      ],
      "name": "exists",
      "outputs": [
        {
          "internalType": "bool",
          "name": "",
          "type": "bool"
        }
      ],
      "stateMutability": "view",
      "type": "function"
    },
    {
      "inputs": [],
      "name": "initialize",
      "outputs": [],
      "stateMutability": "nonpayable",
      "type": "function"
    },
    {
      "inputs": [
        {
          "internalType": "address",
          "name": "account",
          "type": "address"
        },
        {
          "internalType": "address",
          "name": "operator",
          "type": "address"
        }
      ],
      "name": "isApprovedForAll",
      "outputs": [
        {
          "internalType": "bool",
          "name": "",
          "type": "bool"
        }
      ],
      "stateMutability": "view",
      "type": "function"
    },
    {
      "inputs": [
        {
          "internalType": "uint256",
          "name": "_tokenId",
          "type": "uint256"
        }
      ],
      "name": "royaltyFee",
      "outputs": [
        {
          "internalType": "uint16",
          "name": "",
          "type": "uint16"
        }
      ],
      "stateMutability": "view",
      "type": "function"
    },
    {
      "inputs": [
        {
          "internalType": "address",
          "name": "from",
          "type": "address"
        },
        {
          "internalType": "address",
          "name": "to",
          "type": "address"
        },
        {
          "internalType": "uint256[]",
          "name": "ids",
          "type": "uint256[]"
        },
        {
          "internalType": "uint256[]",
          "name": "amounts",
          "type": "uint256[]"
        },
        {
          "internalType": "bytes",
          "name": "data",
          "type": "bytes"
        }
      ],
      "name": "safeBatchTransferFrom",
      "outputs": [],
      "stateMutability": "nonpayable",
      "type": "function"
    },
    {
      "inputs": [
        {
          "internalType": "address",
          "name": "from",
          "type": "address"
        },
        {
          "internalType": "address",
          "name": "to",
          "type": "address"
        },
        {
          "internalType": "uint256",
          "name": "id",
          "type": "uint256"
        },
        {
          "internalType": "uint256",
          "name": "amount",
          "type": "uint256"
        },
        {
          "internalType": "bytes",
          "name": "data",
          "type": "bytes"
        }
      ],
      "name": "safeTransferFrom",
      "outputs": [],
      "stateMutability": "nonpayable",
      "type": "function"
    },
    {
      "inputs": [
        {
          "internalType": "address",
          "name": "operator",
          "type": "address"
        },
        {
          "internalType": "bool",
          "name": "approved",
          "type": "bool"
        }
      ],
      "name": "setApprovalForAll",
      "outputs": [],
      "stateMutability": "nonpayable",
      "type": "function"
    },
    {
      "inputs": [
        {
          "internalType": "bytes4",
          "name": "interfaceId",
          "type": "bytes4"
        }
      ],
      "name": "supportsInterface",
      "outputs": [
        {
          "internalType": "bool",
          "name": "",
          "type": "bool"
        }
      ],
      "stateMutability": "view",
      "type": "function"
    },
    {
      "inputs": [
        {
          "internalType": "uint256",
          "name": "id",
          "type": "uint256"
        }
      ],
      "name": "totalSupply",
      "outputs": [
        {
          "internalType": "uint256",
          "name": "",
          "type": "uint256"
        }
      ],
      "stateMutability": "view",
      "type": "function"
    },
    {
      "inputs": [
        {
          "internalType": "uint256",
          "name": "",
          "type": "uint256"
        }
      ],
      "name": "uri",
      "outputs": [
        {
          "internalType": "string",
          "name": "",
          "type": "string"
        }
      ],
      "stateMutability": "view",
      "type": "function"
    }
  ],
  "bytecode": "0x608060405234801561001057600080fd5b50611ac8806100206000396000f3fe608060405234801561001057600080fd5b50600436106100f45760003560e01c80637d36030f11610097578063c440ef5e11610066578063c440ef5e14610248578063c57dc2351461025b578063e985e9c514610292578063f242432a146102ce576100f4565b80637d36030f146101fa5780638129fc1c1461020d578063a22cb46514610215578063bd85b03914610228576100f4565b80632eb2c2d6116100d35780632eb2c2d6146101625780634e1273f4146101775780634f558e7914610197578063510b5158146101b9576100f4565b8062fdd58e146100f957806301ffc9a71461011f5780630e89341c14610142575b600080fd5b61010c610107366004611489565b6102e1565b6040519081526020015b60405180910390f35b61013261012d36600461157a565b61037a565b6040519015158152602001610116565b610155610150366004611680565b6103ce565b6040516101169190611801565b610175610170366004611348565b610462565b005b61018a6101853660046114b2565b61050b565b60405161011691906117c0565b6101326101a5366004611680565b600090815260976020526040902054151590565b6101e26101c7366004611680565b600090815260c960205260409020546001600160a01b031690565b6040516001600160a01b039091168152602001610116565b61010c6102083660046115b9565b61066c565b610175610701565b61017561022336600461144f565b6107e6565b61010c610236366004611680565b60009081526097602052604090205490565b61010c610256366004611614565b6108fa565b61027f610269366004611680565b600090815260ca602052604090205461ffff1690565b60405161ffff9091168152602001610116565b6101326102a0366004611316565b6001600160a01b03918216600090815260666020908152604080832093909416825291909152205460ff1690565b6101756102dc3660046113ed565b61099b565b60006001600160a01b0383166103525760405162461bcd60e51b815260206004820152602b60248201527f455243313135353a2062616c616e636520717565727920666f7220746865207a60448201526a65726f206164647265737360a81b60648201526084015b60405180910390fd5b5060009081526065602090815260408083206001600160a01b03949094168352929052205490565b60006001600160e01b03198216636cdb3d1360e11b14806103ab57506001600160e01b031982166303a24d0760e21b145b806103c657506301ffc9a760e01b6001600160e01b03198316145b90505b919050565b6060606780546103dd90611926565b80601f016020809104026020016040519081016040528092919081815260200182805461040990611926565b80156104565780601f1061042b57610100808354040283529160200191610456565b820191906000526020600020905b81548152906001019060200180831161043957829003601f168201915b50505050509050919050565b61046a610a34565b6001600160a01b0316856001600160a01b031614806104905750610490856102a0610a34565b6104f75760405162461bcd60e51b815260206004820152603260248201527f455243313135353a207472616e736665722063616c6c6572206973206e6f74206044820152711bdddb995c881b9bdc88185c1c1c9bdd995960721b6064820152608401610349565b6105048585858585610a39565b5050505050565b606081518351146105705760405162461bcd60e51b815260206004820152602960248201527f455243313135353a206163636f756e747320616e6420696473206c656e677468604482015268040dad2e6dac2e8c6d60bb1b6064820152608401610349565b600083516001600160401b0381111561059957634e487b7160e01b600052604160045260246000fd5b6040519080825280602002602001820160405280156105c2578160200160208202803683370190505b50905060005b8451811015610664576106298582815181106105f457634e487b7160e01b600052603260045260246000fd5b602002602001015185838151811061061c57634e487b7160e01b600052603260045260246000fd5b60200260200101516102e1565b82828151811061064957634e487b7160e01b600052603260045260246000fd5b602090810291909101015261065d8161198d565b90506105c8565b509392505050565b600080846040516020016106809190611801565b6040516020818303038152906040528051906020012060001c90506106bf3382866001600160401b031660405180602001604052806000815250610c40565b600081815260c96020908152604080832080546001600160a01b0319163317905560ca9091529020805461ffff851661ffff1990911617905590509392505050565b600054610100900460ff168061071a575060005460ff16155b61077d5760405162461bcd60e51b815260206004820152602e60248201527f496e697469616c697a61626c653a20636f6e747261637420697320616c72656160448201526d191e481a5b9a5d1a585b1a5e995960921b6064820152608401610349565b600054610100900460ff161580156107a8576000805460ff1961ff0019909116610100171660011790555b6107d16040518060400160405280600881526020016775726c2f7b69647d60c01b815250610c75565b80156107e3576000805461ff00191690555b50565b816001600160a01b03166107f8610a34565b6001600160a01b031614156108615760405162461bcd60e51b815260206004820152602960248201527f455243313135353a2073657474696e6720617070726f76616c20737461747573604482015268103337b91039b2b63360b91b6064820152608401610349565b806066600061086e610a34565b6001600160a01b03908116825260208083019390935260409182016000908120918716808252919093529120805460ff1916921515929092179091556108b2610a34565b6001600160a01b03167f17307eab39ab6107e8899845ad3d59bd9653f200f220920489ca2b5937696c31836040516108ee911515815260200190565b60405180910390a35050565b6000808560405160200161090e9190611801565b6040516020818303038152906040528051906020012060001c905061094d3382876001600160401b031660405180602001604052806000815250610c40565b600081815260c96020908152604080832080546001600160a01b0388166001600160a01b031990911617905560ca9091529020805461ffff861661ffff199091161790559050949350505050565b6109a3610a34565b6001600160a01b0316856001600160a01b031614806109c957506109c9856102a0610a34565b610a275760405162461bcd60e51b815260206004820152602960248201527f455243313135353a2063616c6c6572206973206e6f74206f776e6572206e6f7260448201526808185c1c1c9bdd995960ba1b6064820152608401610349565b6105048585858585610c8c565b335b90565b8151835114610a9b5760405162461bcd60e51b815260206004820152602860248201527f455243313135353a2069647320616e6420616d6f756e7473206c656e677468206044820152670dad2e6dac2e8c6d60c31b6064820152608401610349565b6001600160a01b038416610ac15760405162461bcd60e51b81526004016103499061185c565b6000610acb610a34565b905060005b8451811015610bd2576000858281518110610afb57634e487b7160e01b600052603260045260246000fd5b602002602001015190506000858381518110610b2757634e487b7160e01b600052603260045260246000fd5b60209081029190910181015160008481526065835260408082206001600160a01b038e168352909352919091205490915081811015610b785760405162461bcd60e51b8152600401610349906118a1565b60008381526065602090815260408083206001600160a01b038e8116855292528083208585039055908b16825281208054849290610bb790849061190e565b9250508190555050505080610bcb9061198d565b9050610ad0565b50846001600160a01b0316866001600160a01b0316826001600160a01b03167f4a39dc06d4c0dbc64b70af90fd698a233a518aa5d07e595d983b8c0526c8f7fb8787604051610c229291906117d3565b60405180910390a4610c38818787878787610dc1565b505050505050565b610c4c84848484610f2c565b60008381526097602052604081208054849290610c6a90849061190e565b909155505050505050565b8051610c8890606790602084019061115d565b5050565b6001600160a01b038416610cb25760405162461bcd60e51b81526004016103499061185c565b6000610cbc610a34565b9050610cd6818787610ccd8861103a565b6105048861103a565b60008481526065602090815260408083206001600160a01b038a16845290915290205483811015610d195760405162461bcd60e51b8152600401610349906118a1565b60008581526065602090815260408083206001600160a01b038b8116855292528083208785039055908816825281208054869290610d5890849061190e565b909155505060408051868152602081018690526001600160a01b03808916928a821692918616917fc3d58168c5ae7397731d063d5bbf3d657854427343f4c083240f7aacaa2d0f62910160405180910390a4610db8828888888888611093565b50505050505050565b6001600160a01b0384163b15610c385760405163bc197c8160e01b81526001600160a01b0385169063bc197c8190610e05908990899088908890889060040161171d565b602060405180830381600087803b158015610e1f57600080fd5b505af1925050508015610e4f575060408051601f3d908101601f19168201909252610e4c9181019061159d565b60015b610efc57610e5b6119d4565b806308c379a01415610e955750610e706119eb565b80610e7b5750610e97565b8060405162461bcd60e51b81526004016103499190611801565b505b60405162461bcd60e51b815260206004820152603460248201527f455243313135353a207472616e7366657220746f206e6f6e20455243313135356044820152732932b1b2b4bb32b91034b6b83632b6b2b73a32b960611b6064820152608401610349565b6001600160e01b0319811663bc197c8160e01b14610db85760405162461bcd60e51b815260040161034990611814565b6001600160a01b038416610f8c5760405162461bcd60e51b815260206004820152602160248201527f455243313135353a206d696e7420746f20746865207a65726f206164647265736044820152607360f81b6064820152608401610349565b6000610f96610a34565b9050610fa881600087610ccd8861103a565b60008481526065602090815260408083206001600160a01b038916845290915281208054859290610fda90849061190e565b909155505060408051858152602081018590526001600160a01b0380881692600092918516917fc3d58168c5ae7397731d063d5bbf3d657854427343f4c083240f7aacaa2d0f62910160405180910390a461050481600087878787611093565b6040805160018082528183019092526060916000919060208083019080368337019050509050828160008151811061108257634e487b7160e01b600052603260045260246000fd5b602090810291909101015292915050565b6001600160a01b0384163b15610c385760405163f23a6e6160e01b81526001600160a01b0385169063f23a6e61906110d7908990899088908890889060040161177b565b602060405180830381600087803b1580156110f157600080fd5b505af1925050508015611121575060408051601f3d908101601f1916820190925261111e9181019061159d565b60015b61112d57610e5b6119d4565b6001600160e01b0319811663f23a6e6160e01b14610db85760405162461bcd60e51b815260040161034990611814565b82805461116990611926565b90600052602060002090601f01602090048101928261118b57600085556111d1565b82601f106111a457805160ff19168380011785556111d1565b828001600101855582156111d1579182015b828111156111d15782518255916020019190600101906111b6565b506111dd9291506111e1565b5090565b5b808211156111dd57600081556001016111e2565b80356001600160a01b03811681146103c957600080fd5b600082601f83011261121d578081fd5b8135602061122a826118eb565b6040516112378282611961565b838152828101915085830183850287018401881015611254578586fd5b855b8581101561127257813584529284019290840190600101611256565b5090979650505050505050565b600082601f83011261128f578081fd5b81356001600160401b038111156112a8576112a86119be565b6040516112bf601f8301601f191660200182611961565b8181528460208386010111156112d3578283fd5b816020850160208301379081016020019190915292915050565b803561ffff811681146103c957600080fd5b80356001600160401b03811681146103c957600080fd5b60008060408385031215611328578182fd5b611331836111f6565b915061133f602084016111f6565b90509250929050565b600080600080600060a0868803121561135f578081fd5b611368866111f6565b9450611376602087016111f6565b935060408601356001600160401b0380821115611391578283fd5b61139d89838a0161120d565b945060608801359150808211156113b2578283fd5b6113be89838a0161120d565b935060808801359150808211156113d3578283fd5b506113e08882890161127f565b9150509295509295909350565b600080600080600060a08688031215611404578081fd5b61140d866111f6565b945061141b602087016111f6565b9350604086013592506060860135915060808601356001600160401b03811115611443578182fd5b6113e08882890161127f565b60008060408385031215611461578182fd5b61146a836111f6565b91506020830135801515811461147e578182fd5b809150509250929050565b6000806040838503121561149b578182fd5b6114a4836111f6565b946020939093013593505050565b600080604083850312156114c4578182fd5b82356001600160401b03808211156114da578384fd5b818501915085601f8301126114ed578384fd5b813560206114fa826118eb565b6040516115078282611961565b8381528281019150858301838502870184018b1015611524578889fd5b8896505b8487101561154d57611539816111f6565b835260019690960195918301918301611528565b5096505086013592505080821115611563578283fd5b506115708582860161120d565b9150509250929050565b60006020828403121561158b578081fd5b813561159681611a7c565b9392505050565b6000602082840312156115ae578081fd5b815161159681611a7c565b6000806000606084860312156115cd578283fd5b83356001600160401b038111156115e2578384fd5b6115ee8682870161127f565b9350506115fd602085016112ff565b915061160b604085016112ed565b90509250925092565b60008060008060808587031215611629578182fd5b84356001600160401b0381111561163e578283fd5b61164a8782880161127f565b945050611659602086016112ff565b9250611667604086016112ed565b9150611675606086016111f6565b905092959194509250565b600060208284031215611691578081fd5b5035919050565b6000815180845260208085019450808401835b838110156116c7578151875295820195908201906001016116ab565b509495945050505050565b60008151808452815b818110156116f7576020818501810151868301820152016116db565b818111156117085782602083870101525b50601f01601f19169290920160200192915050565b6001600160a01b0386811682528516602082015260a06040820181905260009061174990830186611698565b828103606084015261175b8186611698565b9050828103608084015261176f81856116d2565b98975050505050505050565b6001600160a01b03868116825285166020820152604081018490526060810183905260a0608082018190526000906117b5908301846116d2565b979650505050505050565b6000602082526115966020830184611698565b6000604082526117e66040830185611698565b82810360208401526117f88185611698565b95945050505050565b60006020825261159660208301846116d2565b60208082526028908201527f455243313135353a204552433131353552656365697665722072656a656374656040820152676420746f6b656e7360c01b606082015260800190565b60208082526025908201527f455243313135353a207472616e7366657220746f20746865207a65726f206164604082015264647265737360d81b606082015260800190565b6020808252602a908201527f455243313135353a20696e73756666696369656e742062616c616e636520666f60408201526939103a3930b739b332b960b11b606082015260800190565b60006001600160401b03821115611904576119046119be565b5060209081020190565b60008219821115611921576119216119a8565b500190565b60028104600182168061193a57607f821691505b6020821081141561195b57634e487b7160e01b600052602260045260246000fd5b50919050565b601f8201601f191681016001600160401b0381118282101715611986576119866119be565b6040525050565b60006000198214156119a1576119a16119a8565b5060010190565b634e487b7160e01b600052601160045260246000fd5b634e487b7160e01b600052604160045260246000fd5b600060033d1115610a3657600481823e5160e01c90565b600060443d10156119fb57610a36565b6040516003193d81016004833e81513d6001600160401b038160248401118184111715611a2c575050505050610a36565b8285019150815181811115611a4657505050505050610a36565b843d8701016020828501011115611a6257505050505050610a36565b611a7160208286010187611961565b509094505050505090565b6001600160e01b0319811681146107e357600080fdfea26469706673582212200d9cd35527e0663ef992d5405717bae07e98a8d49c9569ceee580aff9674245564736f6c63430008020033",
  "linkReferences": {},
  "deployedLinkReferences": {}
}