{
  "_format": "hh-sol-artifact-1",
  "contractName": "MintarSale",
  "sourceName": "contracts/Sale.sol",
  "abi": [
    {
      "anonymous": false,
      "inputs": [
        {
          "indexed": true,
          "internalType": "address",
          "name": "_contractAddress",
          "type": "address"
        },
        {
          "indexed": false,
          "internalType": "uint256",
          "name": "_tokenId",
          "type": "uint256"
        }
      ],
      "name": "SaleCanceled",
      "type": "event"
    },
    {
      "anonymous": false,
      "inputs": [
        {
          "indexed": true,
          "internalType": "address",
          "name": "_contractAddress",
          "type": "address"
        },
        {
          "indexed": true,
          "internalType": "uint256",
          "name": "_tokenId",
          "type": "uint256"
        },
        {
          "indexed": false,
          "internalType": "uint128",
          "name": "_price",
          "type": "uint128"
        },
        {
          "indexed": false,
          "internalType": "address",
          "name": "_seller",
          "type": "address"
        },
        {
          "indexed": false,
          "internalType": "uint256",
          "name": "_amount",
          "type": "uint256"
        }
      ],
      "name": "SaleCreated",
      "type": "event"
    },
    {
      "anonymous": false,
      "inputs": [
        {
          "indexed": true,
          "internalType": "address",
          "name": "_contractAddress",
          "type": "address"
        },
        {
          "indexed": true,
          "internalType": "uint256",
          "name": "_tokenId",
          "type": "uint256"
        },
        {
          "indexed": false,
          "internalType": "uint128",
          "name": "_price",
          "type": "uint128"
        },
        {
          "indexed": false,
          "internalType": "address",
          "name": "_buyer",
          "type": "address"
        },
        {
          "indexed": false,
          "internalType": "address",
          "name": "_seller",
          "type": "address"
        },
        {
          "indexed": false,
          "internalType": "uint256",
          "name": "_amount",
          "type": "uint256"
        }
      ],
      "name": "SaleSuccessful",
      "type": "event"
    },
    {
      "inputs": [
        {
          "internalType": "address",
          "name": "_contractAddress",
          "type": "address"
        },
        {
          "internalType": "uint256",
          "name": "_tokenId",
          "type": "uint256"
        },
        {
          "internalType": "uint256",
          "name": "_amount",
          "type": "uint256"
        }
      ],
      "name": "cancelSale",
      "outputs": [],
      "stateMutability": "nonpayable",
      "type": "function"
    },
    {
      "inputs": [
        {
          "internalType": "address",
          "name": "_contractAddress",
          "type": "address"
        },
        {
          "internalType": "bytes",
          "name": "id",
          "type": "bytes"
        },
        {
          "internalType": "uint64",
          "name": "_amount",
          "type": "uint64"
        },
        {
          "internalType": "uint16",
          "name": "__royaltyFee",
          "type": "uint16"
        },
        {
          "internalType": "uint128",
          "name": "_price",
          "type": "uint128"
        }
      ],
      "name": "createAndSell",
      "outputs": [
        {
          "internalType": "uint256",
          "name": "",
          "type": "uint256"
        }
      ],
      "stateMutability": "nonpayable",
      "type": "function"
    },
    {
      "inputs": [
        {
          "internalType": "address",
          "name": "_contractAddress",
          "type": "address"
        },
        {
          "internalType": "uint256",
          "name": "_tokenId",
          "type": "uint256"
        },
        {
          "internalType": "uint128",
          "name": "_price",
          "type": "uint128"
        },
        {
          "internalType": "uint256",
          "name": "_amount",
          "type": "uint256"
        }
      ],
      "name": "createSale",
      "outputs": [],
      "stateMutability": "nonpayable",
      "type": "function"
    },
    {
      "inputs": [
        {
          "internalType": "address",
          "name": "_contractAddress",
          "type": "address"
        },
        {
          "internalType": "address",
          "name": "_seller",
          "type": "address"
        },
        {
          "internalType": "uint256",
          "name": "_tokenId",
          "type": "uint256"
        },
        {
          "internalType": "uint128",
          "name": "_price",
          "type": "uint128"
        },
        {
          "internalType": "uint256",
          "name": "_amount",
          "type": "uint256"
        }
      ],
      "name": "createSaleFromContract",
      "outputs": [],
      "stateMutability": "nonpayable",
      "type": "function"
    },
    {
      "inputs": [
        {
          "internalType": "address",
          "name": "_contractAddress",
          "type": "address"
        },
        {
          "internalType": "uint256",
          "name": "_tokenId",
          "type": "uint256"
        }
      ],
      "name": "isOnSale",
      "outputs": [
        {
          "internalType": "bool",
          "name": "",
          "type": "bool"
        }
      ],
      "stateMutability": "view",
      "type": "function"
    },
    {
      "inputs": [
        {
          "internalType": "address",
          "name": "",
          "type": "address"
        },
        {
          "internalType": "address",
          "name": "",
          "type": "address"
        },
        {
          "internalType": "uint256[]",
          "name": "",
          "type": "uint256[]"
        },
        {
          "internalType": "uint256[]",
          "name": "",
          "type": "uint256[]"
        },
        {
          "internalType": "bytes",
          "name": "",
          "type": "bytes"
        }
      ],
      "name": "onERC1155BatchReceived",
      "outputs": [
        {
          "internalType": "bytes4",
          "name": "",
          "type": "bytes4"
        }
      ],
      "stateMutability": "pure",
      "type": "function"
    },
    {
      "inputs": [
        {
          "internalType": "address",
          "name": "",
          "type": "address"
        },
        {
          "internalType": "address",
          "name": "",
          "type": "address"
        },
        {
          "internalType": "uint256",
          "name": "",
          "type": "uint256"
        },
        {
          "internalType": "uint256",
          "name": "",
          "type": "uint256"
        },
        {
          "internalType": "bytes",
          "name": "",
          "type": "bytes"
        }
      ],
      "name": "onERC1155Received",
      "outputs": [
        {
          "internalType": "bytes4",
          "name": "",
          "type": "bytes4"
        }
      ],
      "stateMutability": "pure",
      "type": "function"
    },
    {
      "inputs": [
        {
          "internalType": "address",
          "name": "_contractAddress",
          "type": "address"
        },
        {
          "internalType": "uint256",
          "name": "_tokenId",
          "type": "uint256"
        },
        {
          "internalType": "uint256",
          "name": "_amount",
          "type": "uint256"
        }
      ],
      "name": "purchase",
      "outputs": [],
      "stateMutability": "payable",
      "type": "function"
    },
    {
      "inputs": [
        {
          "internalType": "address",
          "name": "",
          "type": "address"
        },
        {
          "internalType": "uint256",
          "name": "",
          "type": "uint256"
        }
      ],
      "name": "sales",
      "outputs": [
        {
          "internalType": "address",
          "name": "seller",
          "type": "address"
        },
        {
          "internalType": "uint128",
          "name": "price",
          "type": "uint128"
        },
        {
          "internalType": "uint256",
          "name": "amount",
          "type": "uint256"
        }
      ],
      "stateMutability": "view",
      "type": "function"
    },
    {
      "inputs": [],
      "name": "serviceFee",
      "outputs": [
        {
          "internalType": "uint256",
          "name": "",
          "type": "uint256"
        }
      ],
      "stateMutability": "view",
      "type": "function"
    },
    {
      "inputs": [
        {
          "internalType": "bytes4",
          "name": "interfaceId",
          "type": "bytes4"
        }
      ],
      "name": "supportsInterface",
      "outputs": [
        {
          "internalType": "bool",
          "name": "",
          "type": "bool"
        }
      ],
      "stateMutability": "view",
      "type": "function"
    }
  ],
  "bytecode": "0x608060405234801561001057600080fd5b506113c0806100206000396000f3fe60806040526004361061009c5760003560e01c806398968f151161006457806398968f15146101c0578063a550e4b7146101d3578063bc197c81146101f3578063bdb818a514610254578063c28d81ae14610274578063f23a6e61146102945761009c565b806301ffc9a7146100a15780632992099f146100d65780633a1c83ac146100f8578063895047cc1461017c5780638abdf5aa146101aa575b600080fd5b3480156100ad57600080fd5b506100c16100bc3660046111a0565b6102da565b60405190151581526020015b60405180910390f35b3480156100e257600080fd5b506100f66100f136600461116c565b6102e2565b005b34801561010457600080fd5b5061014f6101133660046110fc565b60006020818152928152604080822090935290815220805460018201546002909201546001600160a01b03909116916001600160801b03169083565b604080516001600160a01b0390941684526001600160801b039092166020840152908201526060016100cd565b34801561018857600080fd5b5061019c61019736600461100c565b610445565b6040519081526020016100cd565b3480156101b657600080fd5b5061019c60015481565b6100f66101ce36600461116c565b61062d565b3480156101df57600080fd5b506100c16101ee3660046110fc565b6109dd565b3480156101ff57600080fd5b5061023b61020e366004610e7f565b7fbc197c819b3e337a6f9652dd10becd7eef83032af3b9d958d3d42f669414662198975050505050505050565b6040516001600160e01b031990911681526020016100cd565b34801561026057600080fd5b506100f661026f366004611127565b610a37565b34801561028057600080fd5b506100f661028f366004610f3a565b610b5e565b3480156102a057600080fd5b5061023b6102af366004610f92565b7ff23a6e612e1ff4830e658fe43f4e3cb4a5f8170bd5d9e69fb5d7a7fa9e4fdf979695505050505050565b60015b919050565b6001600160a01b0383811660009081526020818152604080832086845290915290208054909116331461035c5760405162461bcd60e51b815260206004820152601860248201527f726571756573746572206e6f7420617574686f72697a6564000000000000000060448201526064015b60405180910390fd5b8054604051637921219560e11b815285916001600160a01b038084169263f242432a92610394923092911690899089906004016111fc565b600060405180830381600087803b1580156103ae57600080fd5b505af11580156103c2573d6000803e3d6000fd5b505050506001600160a01b038516600081815260208181526040808320888452825280832080546001600160a01b03191681556001810180546001600160801b03191690556002019290925590518681527f9aab328f565aee990ccdda0fad461403cefd35ef76e04e7c1df569a5dd633caf910160405180910390a25050505050565b60405163622077af60e11b8152600090869082906001600160a01b0383169063c440ef5e9061047e908a908a908a903390600401611234565b602060405180830381600087803b15801561049857600080fd5b505af11580156104ac573d6000803e3d6000fd5b505050506040513d601f19601f820116820180604052508101906104d091906111e4565b905060006040518060600160405280336001600160a01b03168152602001866001600160801b031681526020018867ffffffffffffffff168152509050806000808b6001600160a01b03166001600160a01b03168152602001908152602001600020600084815260200190815260200160002060008201518160000160006101000a8154816001600160a01b0302191690836001600160a01b0316021790555060208201518160010160006101000a8154816001600160801b0302191690836001600160801b031602179055506040820151816002015590505081896001600160a01b03167fe23abbfa2abc833198e1ff7fed44fad6e2a1c2218def757f8655458c0f2c4fd487338b604051610617939291906001600160801b039390931683526001600160a01b0391909116602083015267ffffffffffffffff16604082015260600190565b60405180910390a3509150505b95945050505050565b6001600160a01b038084166000908152602081815260408083208684529091529020805460028201549192169083111561069f5760405162461bcd60e51b81526020600482015260136024820152721a5b9cdd59999a58da595b9d08185b5bdd5b9d606a1b6044820152606401610353565b60018201546001600160801b03163410156106f15760405162461bcd60e51b815260206004820152601260248201527134b739bab33334b1b4b2b73a1032ba3432b960711b6044820152606401610353565b604051637921219560e11b8152859081906001600160a01b0382169063f242432a9061072790309033908b908b906004016111fc565b600060405180830381600087803b15801561074157600080fd5b505af1158015610755573d6000803e3d6000fd5b505050508484600201546107699190611309565b600285018190556107ba576001600160a01b038716600090815260208181526040808320898452909152812080546001600160a01b03191681556001810180546001600160801b0319169055600201555b604051630a216a2b60e31b8152600481018790526000906001600160a01b0383169063510b51589060240160206040518083038186803b1580156107fd57600080fd5b505afa158015610811573d6000803e3d6000fd5b505050506040513d601f19601f820116820180604052508101906108359190610e5c565b60405163c57dc23560e01b8152600481018990529091506000906001600160a01b0384169063c57dc2359060240160206040518083038186803b15801561087b57600080fd5b505afa15801561088f573d6000803e3d6000fd5b505050506040513d601f19601f820116820180604052508101906108b391906111c8565b905060006108c3612710836112b5565b6108d19061ffff16346112ea565b905060006127106001546108e591906112d6565b6108ef90346112ea565b90506000816108fe8434611309565b6109089190611309565b6040519091506001600160a01b0386169084156108fc029085906000818181858888f19350505050158015610941573d6000803e3d6000fd5b506040516001600160a01b0389169082156108fc029083906000818181858888f19350505050158015610978573d6000803e3d6000fd5b5060408051600081523360208201526001600160a01b038a811682840152606082018d905291518d928f16917f23df4888276ddbd130e02bf1325720ca1f4cb8a8101465fb800345716f01c790919081900360800190a3505050505050505050505050565b6001600160a01b0380831660009081526020818152604080832085845290915281208054919290911615801590610a20575060018101546001600160801b031615155b8015610a2f5750600281015415155b949350505050565b610a4384338584610c8a565b610a895760405162461bcd60e51b81526020600482015260176024820152760696e76616c696420746f6b656e206f776e65727368697604c1b6044820152606401610353565b610a9584338584610d2c565b6040805160608082018352338083526001600160801b0386811660208086018281528688018981526001600160a01b038d811660008181528086528b81208f825286528b90208a5181546001600160a01b031916931692909217825592516001820180546001600160801b03191691909716179095555160029094019390935586519182528101929092529381018590529192869290917fe23abbfa2abc833198e1ff7fed44fad6e2a1c2218def757f8655458c0f2c4fd4910160405180910390a35050505050565b610b6a85858584610c8a565b610bb05760405162461bcd60e51b81526020600482015260176024820152760696e76616c696420746f6b656e206f776e65727368697604c1b6044820152606401610353565b610bbc85858584610d2c565b60408051606080820183526001600160a01b038781168084526001600160801b0387811660208087018281528789018a81528e871660008181528085528b81208f825285528b90208a5181546001600160a01b031916991698909817885591516001880180546001600160801b031916919096161790945592516002909501949094558651908152928301919091529381018590529192869290917fe23abbfa2abc833198e1ff7fed44fad6e2a1c2218def757f8655458c0f2c4fd4910160405180910390a3505050505050565b604051627eeac760e11b81526001600160a01b03848116600483015260248201849052600091869183919083169062fdd58e9060440160206040518083038186803b158015610cd857600080fd5b505afa158015610cec573d6000803e3d6000fd5b505050506040513d601f19601f82011682018060405250810190610d1091906111e4565b9050838110158015610d2157508015155b979650505050505050565b604051637921219560e11b815284906001600160a01b0382169063f242432a90610d609087903090889088906004016111fc565b600060405180830381600087803b158015610d7a57600080fd5b505af1158015610d8e573d6000803e3d6000fd5b505050505050505050565b60008083601f840112610daa578081fd5b50813567ffffffffffffffff811115610dc1578182fd5b6020830191508360208083028501011115610ddb57600080fd5b9250929050565b60008083601f840112610df3578182fd5b50813567ffffffffffffffff811115610e0a578182fd5b602083019150836020828501011115610ddb57600080fd5b80356001600160801b03811681146102dd57600080fd5b80356102dd8161137a565b803567ffffffffffffffff811681146102dd57600080fd5b600060208284031215610e6d578081fd5b8151610e7881611362565b9392505050565b60008060008060008060008060a0898b031215610e9a578384fd5b8835610ea581611362565b97506020890135610eb581611362565b9650604089013567ffffffffffffffff80821115610ed1578586fd5b610edd8c838d01610d99565b909850965060608b0135915080821115610ef5578586fd5b610f018c838d01610d99565b909650945060808b0135915080821115610f19578384fd5b50610f268b828c01610de2565b999c989b5096995094979396929594505050565b600080600080600060a08688031215610f51578081fd5b8535610f5c81611362565b94506020860135610f6c81611362565b935060408601359250610f8160608701610e22565b949793965091946080013592915050565b60008060008060008060a08789031215610faa578182fd5b8635610fb581611362565b95506020870135610fc581611362565b94506040870135935060608701359250608087013567ffffffffffffffff811115610fee578283fd5b610ffa89828a01610de2565b979a9699509497509295939492505050565b600080600080600060a08688031215611023578081fd5b853561102e81611362565b9450602086013567ffffffffffffffff8082111561104a578283fd5b818801915088601f83011261105d578283fd5b81358181111561106f5761106f61134c565b604051601f8201601f19908116603f011681019083821181831017156110975761109761134c565b816040528281528b60208487010111156110af578586fd5b826020860160208301379182016020018590525095506110d491505060408701610e44565b92506110e260608701610e39565b91506110f060808701610e22565b90509295509295909350565b6000806040838503121561110e578182fd5b823561111981611362565b946020939093013593505050565b6000806000806080858703121561113c578384fd5b843561114781611362565b93506020850135925061115c60408601610e22565b9396929550929360600135925050565b600080600060608486031215611180578081fd5b833561118b81611362565b95602085013595506040909401359392505050565b6000602082840312156111b1578081fd5b81356001600160e01b031981168114610e78578182fd5b6000602082840312156111d9578081fd5b8151610e788161137a565b6000602082840312156111f5578081fd5b5051919050565b6001600160a01b0394851681529290931660208301526040820152606081019190915260a06080820181905260009082015260c00190565b6000608082528551806080840152815b8181101561126157602081890181015160a0868401015201611244565b81811115611272578260a083860101525b50601f01601f1916820160a0019050611297602083018667ffffffffffffffff169052565b61ffff841660408301526001600160a01b0383166060830152610624565b600061ffff808416806112ca576112ca611336565b92169190910492915050565b6000826112e5576112e5611336565b500490565b600081600019048311821515161561130457611304611320565b500290565b60008282101561131b5761131b611320565b500390565b634e487b7160e01b600052601160045260246000fd5b634e487b7160e01b600052601260045260246000fd5b634e487b7160e01b600052604160045260246000fd5b6001600160a01b038116811461137757600080fd5b50565b61ffff8116811461137757600080fdfea2646970667358221220afa9fa1ef3cdae27d97a2e4921188b61caffbc16b24893685230694277b07af364736f6c63430008020033",
  "linkReferences": {},
  "deployedLinkReferences": {}
}